{
  "contractName": "Poe",
  "abi": [
    {
      "inputs": [],
      "payable": false,
      "stateMutability": "nonpayable",
      "type": "constructor"
    },
    {
      "anonymous": false,
      "inputs": [
        {
          "indexed": false,
          "internalType": "string",
          "name": "docDigest",
          "type": "string"
        },
        {
          "indexed": false,
          "internalType": "address",
          "name": "docAdder",
          "type": "address"
        }
      ],
      "name": "Added",
      "type": "event"
    },
    {
      "anonymous": false,
      "inputs": [
        {
          "indexed": false,
          "internalType": "string",
          "name": "name",
          "type": "string"
        },
        {
          "indexed": false,
          "internalType": "address",
          "name": "schoolAddr",
          "type": "address"
        }
      ],
      "name": "Mapped",
      "type": "event"
    },
    {
      "anonymous": false,
      "inputs": [
        {
          "indexed": false,
          "internalType": "string",
          "name": "docDigest",
          "type": "string"
        },
        {
          "indexed": false,
          "internalType": "bool",
          "name": "status",
          "type": "bool"
        }
      ],
      "name": "Toggled",
      "type": "event"
    },
    {
      "constant": false,
      "inputs": [
        {
          "internalType": "string",
          "name": "schoolName",
          "type": "string"
        }
      ],
      "name": "mapAdder",
      "outputs": [],
      "payable": false,
      "stateMutability": "nonpayable",
      "type": "function"
    },
    {
      "constant": true,
      "inputs": [
        {
          "internalType": "string",
          "name": "hash",
          "type": "string"
        }
      ],
      "name": "findCertificate",
      "outputs": [
        {
          "internalType": "bool",
          "name": "",
          "type": "bool"
        },
        {
          "internalType": "address",
          "name": "",
          "type": "address"
        },
        {
          "internalType": "uint256",
          "name": "",
          "type": "uint256"
        },
        {
          "internalType": "uint256",
          "name": "",
          "type": "uint256"
        },
        {
          "internalType": "string",
          "name": "",
          "type": "string"
        }
      ],
      "payable": false,
      "stateMutability": "view",
      "type": "function"
    },
    {
      "constant": false,
      "inputs": [
        {
          "internalType": "string",
          "name": "hash",
          "type": "string"
        }
      ],
      "name": "addCertificate",
      "outputs": [],
      "payable": false,
      "stateMutability": "nonpayable",
      "type": "function"
    },
    {
      "constant": false,
      "inputs": [
        {
          "internalType": "string",
          "name": "hash",
          "type": "string"
        }
      ],
      "name": "toggleStatus",
      "outputs": [],
      "payable": false,
      "stateMutability": "nonpayable",
      "type": "function"
    }
  ],
  "bytecode": "0x608060405234801561001057600080fd5b50611359806100206000396000f3fe608060405234801561001057600080fd5b506004361061004c5760003560e01c80630a99e4f814610051578063450a29681461010c578063943ef38a146101c7578063b976e9d714610282575b600080fd5b61010a6004803603602081101561006757600080fd5b810190808035906020019064010000000081111561008457600080fd5b82018360208201111561009657600080fd5b803590602001918460018302840111640100000000831117156100b857600080fd5b91908080601f016020809104026020016040519081016040528093929190818152602001838380828437600081840152601f19601f820116905080830192505050505050509192919290505050610402565b005b6101c56004803603602081101561012257600080fd5b810190808035906020019064010000000081111561013f57600080fd5b82018360208201111561015157600080fd5b8035906020019184600183028401116401000000008311171561017357600080fd5b91908080601f016020809104026020016040519081016040528093929190818152602001838380828437600081840152601f19601f82011690508083019250505050505050919291929050505061068c565b005b610280600480360360208110156101dd57600080fd5b81019080803590602001906401000000008111156101fa57600080fd5b82018360208201111561020c57600080fd5b8035906020019184600183028401116401000000008311171561022e57600080fd5b91908080601f016020809104026020016040519081016040528093929190818152602001838380828437600081840152601f19601f820116905080830192505050505050509192919290505050610b8b565b005b61033b6004803603602081101561029857600080fd5b81019080803590602001906401000000008111156102b557600080fd5b8201836020820111156102c757600080fd5b803590602001918460018302840111640100000000831117156102e957600080fd5b91908080601f016020809104026020016040519081016040528093929190818152602001838380828437600081840152601f19601f820116905080830192505050505050509192919290505050610cd8565b60405180861515151581526020018573ffffffffffffffffffffffffffffffffffffffff1673ffffffffffffffffffffffffffffffffffffffff16815260200184815260200183815260200180602001828103825283818151815260200191508051906020019080838360005b838110156103c35780820151818401526020810190506103a8565b50505050905090810190601f1680156103f05780820380516001836020036101000a031916815260200191505b50965050505050505060405180910390f35b61040b8161103d565b61041457600080fd5b600080826040518082805190602001908083835b6020831061044b5780518252602082019150602081019050602083039250610428565b6001836020036101000a0380198251168184511680821785525050505050509050019150509081526020016040518091039020600201541461048c57600080fd5b61049461122c565b60405180608001604052806001151581526020013373ffffffffffffffffffffffffffffffffffffffff168152602001428152602001438152509050806000836040518082805190602001908083835b6020831061050757805182526020820191506020810190506020830392506104e4565b6001836020036101000a038019825116818451168082178552505050505050905001915050908152602001604051809103902060008201518160000160006101000a81548160ff02191690831515021790555060208201518160000160016101000a81548173ffffffffffffffffffffffffffffffffffffffff021916908373ffffffffffffffffffffffffffffffffffffffff16021790555060408201518160010155606082015181600201559050507ffb989cb0d132b51483b9258c1befbe92caa5f5b046af3dfdcc617dcf425af493823360405180806020018373ffffffffffffffffffffffffffffffffffffffff1673ffffffffffffffffffffffffffffffffffffffff168152602001828103825284818151815260200191508051906020019080838360005b8381101561064d578082015181840152602081019050610632565b50505050905090810190601f16801561067a5780820380516001836020036101000a031916815260200191505b50935050505060405180910390a15050565b6000816040518082805190602001908083835b602083106106c2578051825260208201915060208101905060208303925061069f565b6001836020036101000a038019825116818451168082178552505050505050905001915050908152602001604051809103902060000160019054906101000a900473ffffffffffffffffffffffffffffffffffffffff1673ffffffffffffffffffffffffffffffffffffffff163373ffffffffffffffffffffffffffffffffffffffff161461075057600080fd5b600115156000826040518082805190602001908083835b6020831061078a5780518252602082019150602081019050602083039250610767565b6001836020036101000a038019825116818451168082178552505050505050905001915050908152602001604051809103902060000160009054906101000a900460ff16151514156109b1576107de61122c565b60405180608001604052806000151581526020013373ffffffffffffffffffffffffffffffffffffffff168152602001428152602001438152509050806000836040518082805190602001908083835b60208310610851578051825260208201915060208101905060208303925061082e565b6001836020036101000a038019825116818451168082178552505050505050905001915050908152602001604051809103902060008201518160000160006101000a81548160ff02191690831515021790555060208201518160000160016101000a81548173ffffffffffffffffffffffffffffffffffffffff021916908373ffffffffffffffffffffffffffffffffffffffff16021790555060408201518160010155606082015181600201559050507f96a8805bf242976cd238e1c7ed9947f4cfc12c1ce0b68d8afce8c6aae60dd280826000604051808060200183151515158152602001828103825284818151815260200191508051906020019080838360005b83811015610970578082015181840152602081019050610955565b50505050905090810190601f16801561099d5780820380516001836020036101000a031916815260200191505b50935050505060405180910390a150610b88565b6109b961122c565b60405180608001604052806001151581526020013373ffffffffffffffffffffffffffffffffffffffff168152602001428152602001438152509050806000836040518082805190602001908083835b60208310610a2c5780518252602082019150602081019050602083039250610a09565b6001836020036101000a038019825116818451168082178552505050505050905001915050908152602001604051809103902060008201518160000160006101000a81548160ff02191690831515021790555060208201518160000160016101000a81548173ffffffffffffffffffffffffffffffffffffffff021916908373ffffffffffffffffffffffffffffffffffffffff16021790555060408201518160010155606082015181600201559050507f96a8805bf242976cd238e1c7ed9947f4cfc12c1ce0b68d8afce8c6aae60dd280826001604051808060200183151515158152602001828103825284818151815260200191508051906020019080838360005b83811015610b4b578082015181840152602081019050610b30565b50505050905090810190601f168015610b785780820380516001836020036101000a031916815260200191505b50935050505060405180910390a1505b50565b610b9361126c565b604051806020016040528083815250905080600160003373ffffffffffffffffffffffffffffffffffffffff1673ffffffffffffffffffffffffffffffffffffffff1681526020019081526020016000206000820151816000019080519060200190610c0092919061127f565b509050507fb85849511ef6c041570458aa63fbad10e2a54ad7c944d50504920952fdebf5a6823360405180806020018373ffffffffffffffffffffffffffffffffffffffff1673ffffffffffffffffffffffffffffffffffffffff168152602001828103825284818151815260200191508051906020019080838360005b83811015610c99578082015181840152602081019050610c7e565b50505050905090810190601f168015610cc65780820380516001836020036101000a031916815260200191505b50935050505060405180910390a15050565b60008060008060606000866040518082805190602001908083835b60208310610d165780518252602082019150602081019050602083039250610cf3565b6001836020036101000a038019825116818451168082178552505050505050905001915050908152602001604051809103902060000160009054906101000a900460ff166000876040518082805190602001908083835b60208310610d905780518252602082019150602081019050602083039250610d6d565b6001836020036101000a038019825116818451168082178552505050505050905001915050908152602001604051809103902060000160019054906101000a900473ffffffffffffffffffffffffffffffffffffffff166000886040518082805190602001908083835b60208310610e1d5780518252602082019150602081019050602083039250610dfa565b6001836020036101000a0380198251168184511680821785525050505050509050019150509081526020016040518091039020600101546000896040518082805190602001908083835b60208310610e8a5780518252602082019150602081019050602083039250610e67565b6001836020036101000a03801982511681845116808217855250505050505090500191505090815260200160405180910390206002015460016000808c6040518082805190602001908083835b60208310610efa5780518252602082019150602081019050602083039250610ed7565b6001836020036101000a038019825116818451168082178552505050505050905001915050908152602001604051809103902060000160019054906101000a900473ffffffffffffffffffffffffffffffffffffffff1673ffffffffffffffffffffffffffffffffffffffff1673ffffffffffffffffffffffffffffffffffffffff168152602001908152602001600020600001808054600181600116156101000203166002900480601f0160208091040260200160405190810160405280929190818152602001828054600181600116156101000203166002900480156110235780601f10610ff857610100808354040283529160200191611023565b820191906000526020600020905b81548152906001019060200180831161100657829003601f168201915b505050505090509450945094509450945091939590929450565b600060608290506000608090508082511461105d57600092505050611227565b60008090505b8181101561121f577f300000000000000000000000000000000000000000000000000000000000000083828151811061109857fe5b602001015160f81c60f81b7effffffffffffffffffffffffffffffffffffffffffffffffffffffffffffff191610156110d75760009350505050611227565b7f390000000000000000000000000000000000000000000000000000000000000083828151811061110457fe5b602001015160f81c60f81b7effffffffffffffffffffffffffffffffffffffffffffffffffffffffffffff191611801561119557507f610000000000000000000000000000000000000000000000000000000000000083828151811061116657fe5b602001015160f81c60f81b7effffffffffffffffffffffffffffffffffffffffffffffffffffffffffffff1916105b156111a65760009350505050611227565b7f66000000000000000000000000000000000000000000000000000000000000008382815181106111d357fe5b602001015160f81c60f81b7effffffffffffffffffffffffffffffffffffffffffffffffffffffffffffff191611156112125760009350505050611227565b8080600101915050611063565b506001925050505b919050565b6040518060800160405280600015158152602001600073ffffffffffffffffffffffffffffffffffffffff16815260200160008152602001600081525090565b6040518060200160405280606081525090565b828054600181600116156101000203166002900490600052602060002090601f016020900481019282601f106112c057805160ff19168380011785556112ee565b828001600101855582156112ee579182015b828111156112ed5782518255916020019190600101906112d2565b5b5090506112fb91906112ff565b5090565b61132191905b8082111561131d576000816000905550600101611305565b5090565b9056fea265627a7a72315820f18b16316856af7e58f31e4290efd99128fbb23c0787619b0626405934e7caca64736f6c63430005100032",
  "source": "pragma solidity ^0.5.0;\n\ncontract Poe {\n    struct Record {\n        bool status;\n        address adderPub;\n        uint256 mineTime;\n        uint256 blockNumber;\n    }\n    struct School {\n        string adderName;\n    }\n    mapping(string => Record) private docHashes;\n    mapping(address => School) private adder;\n\n    constructor() public {}\n\n    event Mapped(string name, address schoolAddr);\n    event Added(string docDigest, address docAdder);\n    event Toggled(string docDigest, bool status);\n\n    function isValidHash(string memory hash) private pure returns (bool) {\n        bytes memory b = bytes(hash);\n        uint256 hashLength = 128;\n        if (b.length != hashLength) return false;\n        for (uint256 i = 0; i < hashLength; i++) {\n            if (b[i] < \"0\") return false;\n            if (b[i] > \"9\" && b[i] < \"a\") return false;\n            if (b[i] > \"f\") return false;\n        }\n        return true;\n    }\n\n    function mapAdder(string memory schoolName) public {\n        School memory newAdder = School(schoolName);\n        adder[msg.sender] = newAdder;\n        emit Mapped(schoolName, msg.sender);\n    }\n\n    function findCertificate(string memory hash)\n        public\n        view\n        returns (\n            bool,\n            address,\n            uint256,\n            uint256,\n            string memory\n        )\n    {\n        return (\n            docHashes[hash].status,\n            docHashes[hash].adderPub,\n            docHashes[hash].mineTime,\n            docHashes[hash].blockNumber,\n            adder[docHashes[hash].adderPub].adderName\n        );\n    }\n\n    function addCertificate(string memory hash) public {\n        require(isValidHash(hash));\n        require(docHashes[hash].blockNumber == 0);\n        Record memory newRecord = Record(true, msg.sender, now, block.number);\n        docHashes[hash] = newRecord;\n        emit Added(hash, msg.sender);\n    }\n\n    function toggleStatus(string memory hash) public {\n        require(msg.sender == docHashes[hash].adderPub);\n        if (docHashes[hash].status == true) {\n            Record memory newRecord =\n                Record(false, msg.sender, now, block.number);\n            docHashes[hash] = newRecord;\n            emit Toggled(hash, false);\n        } else {\n            Record memory newRecord =\n                Record(true, msg.sender, now, block.number);\n            docHashes[hash] = newRecord;\n            emit Toggled(hash, true);\n        }\n    }\n}\n",
  "sourcePath": "/Users/krxw/Me/DigitalCertValidate/contracts/Poe.sol",
  "compiler": {
    "name": "solc",
    "version": "0.5.16+commit.9c3226ce.Emscripten.clang"
  },
  "schemaVersion": "3.3.0",
  "updatedAt": "2021-03-10T09:34:27.256Z",
  "networkType": "ethereum",
  "devdoc": {
    "methods": {}
  },
  "userdoc": {
    "methods": {}
  }
}