{
  "contractName": "Poe",
  "abi": [
    {
      "inputs": [],
      "payable": false,
      "stateMutability": "nonpayable",
      "type": "constructor"
    },
    {
      "constant": false,
      "inputs": [
        {
          "internalType": "string",
          "name": "hash",
          "type": "string"
        }
      ],
      "name": "addCertificate",
      "outputs": [],
      "payable": false,
      "stateMutability": "nonpayable",
      "type": "function"
    },
    {
      "constant": true,
      "inputs": [
        {
          "internalType": "string",
          "name": "hash",
          "type": "string"
        }
      ],
      "name": "findCertificate",
      "outputs": [
        {
          "internalType": "bool",
          "name": "",
          "type": "bool"
        },
        {
          "internalType": "address",
          "name": "",
          "type": "address"
        },
        {
          "internalType": "uint256",
          "name": "",
          "type": "uint256"
        },
        {
          "internalType": "uint256",
          "name": "",
          "type": "uint256"
        }
      ],
      "payable": false,
      "stateMutability": "view",
      "type": "function"
    },
    {
      "constant": false,
      "inputs": [
        {
          "internalType": "string",
          "name": "hash",
          "type": "string"
        }
      ],
      "name": "toggleStatus",
      "outputs": [],
      "payable": false,
      "stateMutability": "nonpayable",
      "type": "function"
    }
  ],
  "bytecode": "0x608060405234801561001057600080fd5b50610a15806100206000396000f3fe608060405234801561001057600080fd5b50600436106100415760003560e01c80630a99e4f814610046578063450a296814610101578063b976e9d7146101bc575b600080fd5b6100ff6004803603602081101561005c57600080fd5b810190808035906020019064010000000081111561007957600080fd5b82018360208201111561008b57600080fd5b803590602001918460018302840111640100000000831117156100ad57600080fd5b91908080601f016020809104026020016040519081016040528093929190818152602001838380828437600081840152601f19601f8201169050808301925050505050505091929192905050506102d0565b005b6101ba6004803603602081101561011757600080fd5b810190808035906020019064010000000081111561013457600080fd5b82018360208201111561014657600080fd5b8035906020019184600183028401116401000000008311171561016857600080fd5b91908080601f016020809104026020016040519081016040528093929190818152602001838380828437600081840152601f19601f820116905080830192505050505050509192919290505050610400565b005b610275600480360360208110156101d257600080fd5b81019080803590602001906401000000008111156101ef57600080fd5b82018360208201111561020157600080fd5b8035906020019184600183028401116401000000008311171561022357600080fd5b91908080601f016020809104026020016040519081016040528093929190818152602001838380828437600081840152601f19601f8201169050808301925050505050505091929192905050506107aa565b60405180851515151581526020018473ffffffffffffffffffffffffffffffffffffffff1673ffffffffffffffffffffffffffffffffffffffff16815260200183815260200182815260200194505050505060405180910390f35b6102d86109a0565b60405180608001604052806001151581526020013373ffffffffffffffffffffffffffffffffffffffff168152602001428152602001438152509050806000836040518082805190602001908083835b6020831061034b5780518252602082019150602081019050602083039250610328565b6001836020036101000a038019825116818451168082178552505050505050905001915050908152602001604051809103902060008201518160000160006101000a81548160ff02191690831515021790555060208201518160000160016101000a81548173ffffffffffffffffffffffffffffffffffffffff021916908373ffffffffffffffffffffffffffffffffffffffff16021790555060408201518160010155606082015181600201559050505050565b6000816040518082805190602001908083835b602083106104365780518252602082019150602081019050602083039250610413565b6001836020036101000a038019825116818451168082178552505050505050905001915050908152602001604051809103902060000160019054906101000a900473ffffffffffffffffffffffffffffffffffffffff1673ffffffffffffffffffffffffffffffffffffffff163373ffffffffffffffffffffffffffffffffffffffff1614156107a757600115156000826040518082805190602001908083835b602083106104fa57805182526020820191506020810190506020830392506104d7565b6001836020036101000a038019825116818451168082178552505050505050905001915050908152602001604051809103902060000160009054906101000a900460ff16151514156106785761054e6109a0565b60405180608001604052806000151581526020013373ffffffffffffffffffffffffffffffffffffffff168152602001428152602001438152509050806000836040518082805190602001908083835b602083106105c1578051825260208201915060208101905060208303925061059e565b6001836020036101000a038019825116818451168082178552505050505050905001915050908152602001604051809103902060008201518160000160006101000a81548160ff02191690831515021790555060208201518160000160016101000a81548173ffffffffffffffffffffffffffffffffffffffff021916908373ffffffffffffffffffffffffffffffffffffffff1602179055506040820151816001015560608201518160020155905050506107a6565b6106806109a0565b60405180608001604052806001151581526020013373ffffffffffffffffffffffffffffffffffffffff168152602001428152602001438152509050806000836040518082805190602001908083835b602083106106f357805182526020820191506020810190506020830392506106d0565b6001836020036101000a038019825116818451168082178552505050505050905001915050908152602001604051809103902060008201518160000160006101000a81548160ff02191690831515021790555060208201518160000160016101000a81548173ffffffffffffffffffffffffffffffffffffffff021916908373ffffffffffffffffffffffffffffffffffffffff1602179055506040820151816001015560608201518160020155905050505b5b50565b6000806000806000856040518082805190602001908083835b602083106107e657805182526020820191506020810190506020830392506107c3565b6001836020036101000a038019825116818451168082178552505050505050905001915050908152602001604051809103902060000160009054906101000a900460ff166000866040518082805190602001908083835b60208310610860578051825260208201915060208101905060208303925061083d565b6001836020036101000a038019825116818451168082178552505050505050905001915050908152602001604051809103902060000160019054906101000a900473ffffffffffffffffffffffffffffffffffffffff166000876040518082805190602001908083835b602083106108ed57805182526020820191506020810190506020830392506108ca565b6001836020036101000a0380198251168184511680821785525050505050509050019150509081526020016040518091039020600101546000886040518082805190602001908083835b6020831061095a5780518252602082019150602081019050602083039250610937565b6001836020036101000a03801982511681845116808217855250505050505090500191505090815260200160405180910390206002015493509350935093509193509193565b6040518060800160405280600015158152602001600073ffffffffffffffffffffffffffffffffffffffff1681526020016000815260200160008152509056fea265627a7a723158201edd66f50139f54ac39f160921230bd365dfc2ea3239419555ab88ab8b7176b064736f6c63430005100032",
  "source": "pragma solidity ^0.5.0;\n\ncontract Poe {\n    struct Record {\n        bool status;\n        address adderPub;\n        uint256 mineTime;\n        uint256 blockNumber;\n    }\n    mapping(string => Record) private docHashes;\n\n    constructor() public {}\n\n    function addCertificate(string memory hash) public {\n        Record memory newRecord = Record(true, msg.sender, now, block.number);\n        docHashes[hash] = newRecord;\n    }\n\n    function findCertificate(string memory hash)\n        public\n        view\n        returns (\n            bool,\n            address,\n            uint256,\n            uint256\n        )\n    {\n        return (\n            docHashes[hash].status,\n            docHashes[hash].adderPub,\n            docHashes[hash].mineTime,\n            docHashes[hash].blockNumber\n        );\n    }\n\n    function toggleStatus(string memory hash) public {\n        if (msg.sender == docHashes[hash].adderPub) {\n            if (docHashes[hash].status == true) {\n                Record memory newRecord = Record(\n                    false,\n                    msg.sender,\n                    now,\n                    block.number\n                );\n                docHashes[hash] = newRecord;\n            } else {\n                Record memory newRecord = Record(\n                    true,\n                    msg.sender,\n                    now,\n                    block.number\n                );\n                docHashes[hash] = newRecord;\n            }\n        }\n    }\n}\n",
  "sourcePath": "/Users/krxw/Me/DigitalCertValidate/contracts/Poe.sol",
  "compiler": {
    "name": "solc",
    "version": "0.5.16+commit.9c3226ce.Emscripten.clang"
  },
  "schemaVersion": "3.3.0",
  "updatedAt": "2021-01-16T20:41:47.848Z",
  "networkType": "ethereum",
  "devdoc": {
    "methods": {}
  },
  "userdoc": {
    "methods": {}
  }
}