{
  "contractName": "Poe",
  "abi": [
    {
      "inputs": [],
      "payable": false,
      "stateMutability": "nonpayable",
      "type": "constructor"
    },
    {
      "constant": false,
      "inputs": [
        {
          "internalType": "string",
          "name": "schoolName",
          "type": "string"
        }
      ],
      "name": "mapAdder",
      "outputs": [],
      "payable": false,
      "stateMutability": "nonpayable",
      "type": "function"
    },
    {
      "constant": true,
      "inputs": [
        {
          "internalType": "string",
          "name": "hash",
          "type": "string"
        }
      ],
      "name": "findCertificate",
      "outputs": [
        {
          "internalType": "bool",
          "name": "",
          "type": "bool"
        },
        {
          "internalType": "address",
          "name": "",
          "type": "address"
        },
        {
          "internalType": "uint256",
          "name": "",
          "type": "uint256"
        },
        {
          "internalType": "uint256",
          "name": "",
          "type": "uint256"
        },
        {
          "internalType": "string",
          "name": "",
          "type": "string"
        }
      ],
      "payable": false,
      "stateMutability": "view",
      "type": "function"
    },
    {
      "constant": false,
      "inputs": [
        {
          "internalType": "string",
          "name": "hash",
          "type": "string"
        }
      ],
      "name": "addCertificate",
      "outputs": [],
      "payable": false,
      "stateMutability": "nonpayable",
      "type": "function"
    },
    {
      "constant": false,
      "inputs": [
        {
          "internalType": "string",
          "name": "hash",
          "type": "string"
        }
      ],
      "name": "toggleStatus",
      "outputs": [],
      "payable": false,
      "stateMutability": "nonpayable",
      "type": "function"
    }
  ],
  "bytecode": "0x608060405234801561001057600080fd5b50611067806100206000396000f3fe608060405234801561001057600080fd5b506004361061004c5760003560e01c80630a99e4f814610051578063450a29681461010c578063943ef38a146101c7578063b976e9d714610282575b600080fd5b61010a6004803603602081101561006757600080fd5b810190808035906020019064010000000081111561008457600080fd5b82018360208201111561009657600080fd5b803590602001918460018302840111640100000000831117156100b857600080fd5b91908080601f016020809104026020016040519081016040528093929190818152602001838380828437600081840152601f19601f820116905080830192505050505050509192919290505050610402565b005b6101c56004803603602081101561012257600080fd5b810190808035906020019064010000000081111561013f57600080fd5b82018360208201111561015157600080fd5b8035906020019184600183028401116401000000008311171561017357600080fd5b91908080601f016020809104026020016040519081016040528093929190818152602001838380828437600081840152601f19601f8201169050808301925050505050505091929192905050506105bc565b005b610280600480360360208110156101dd57600080fd5b81019080803590602001906401000000008111156101fa57600080fd5b82018360208201111561020c57600080fd5b8035906020019184600183028401116401000000008311171561022e57600080fd5b91908080601f016020809104026020016040519081016040528093929190818152602001838380828437600081840152601f19601f820116905080830192505050505050509192919290505050610969565b005b61033b6004803603602081101561029857600080fd5b81019080803590602001906401000000008111156102b557600080fd5b8201836020820111156102c757600080fd5b803590602001918460018302840111640100000000831117156102e957600080fd5b91908080601f016020809104026020016040519081016040528093929190818152602001838380828437600081840152601f19601f8201169050808301925050505050505091929192905050506109e6565b60405180861515151581526020018573ffffffffffffffffffffffffffffffffffffffff1673ffffffffffffffffffffffffffffffffffffffff16815260200184815260200183815260200180602001828103825283818151815260200191508051906020019080838360005b838110156103c35780820151818401526020810190506103a8565b50505050905090810190601f1680156103f05780820380516001836020036101000a031916815260200191505b50965050505050505060405180910390f35b61040b81610d4b565b61041457600080fd5b600080826040518082805190602001908083835b6020831061044b5780518252602082019150602081019050602083039250610428565b6001836020036101000a0380198251168184511680821785525050505050509050019150509081526020016040518091039020600201541461048c57600080fd5b610494610f3a565b60405180608001604052806001151581526020013373ffffffffffffffffffffffffffffffffffffffff168152602001428152602001438152509050806000836040518082805190602001908083835b6020831061050757805182526020820191506020810190506020830392506104e4565b6001836020036101000a038019825116818451168082178552505050505050905001915050908152602001604051809103902060008201518160000160006101000a81548160ff02191690831515021790555060208201518160000160016101000a81548173ffffffffffffffffffffffffffffffffffffffff021916908373ffffffffffffffffffffffffffffffffffffffff16021790555060408201518160010155606082015181600201559050505050565b6000816040518082805190602001908083835b602083106105f257805182526020820191506020810190506020830392506105cf565b6001836020036101000a038019825116818451168082178552505050505050905001915050908152602001604051809103902060000160019054906101000a900473ffffffffffffffffffffffffffffffffffffffff1673ffffffffffffffffffffffffffffffffffffffff163373ffffffffffffffffffffffffffffffffffffffff161461068057600080fd5b600115156000826040518082805190602001908083835b602083106106ba5780518252602082019150602081019050602083039250610697565b6001836020036101000a038019825116818451168082178552505050505050905001915050908152602001604051809103902060000160009054906101000a900460ff16151514156108385761070e610f3a565b60405180608001604052806000151581526020013373ffffffffffffffffffffffffffffffffffffffff168152602001428152602001438152509050806000836040518082805190602001908083835b60208310610781578051825260208201915060208101905060208303925061075e565b6001836020036101000a038019825116818451168082178552505050505050905001915050908152602001604051809103902060008201518160000160006101000a81548160ff02191690831515021790555060208201518160000160016101000a81548173ffffffffffffffffffffffffffffffffffffffff021916908373ffffffffffffffffffffffffffffffffffffffff160217905550604082015181600101556060820151816002015590505050610966565b610840610f3a565b60405180608001604052806001151581526020013373ffffffffffffffffffffffffffffffffffffffff168152602001428152602001438152509050806000836040518082805190602001908083835b602083106108b35780518252602082019150602081019050602083039250610890565b6001836020036101000a038019825116818451168082178552505050505050905001915050908152602001604051809103902060008201518160000160006101000a81548160ff02191690831515021790555060208201518160000160016101000a81548173ffffffffffffffffffffffffffffffffffffffff021916908373ffffffffffffffffffffffffffffffffffffffff1602179055506040820151816001015560608201518160020155905050505b50565b610971610f7a565b604051806020016040528083815250905080600160003373ffffffffffffffffffffffffffffffffffffffff1673ffffffffffffffffffffffffffffffffffffffff16815260200190815260200160002060008201518160000190805190602001906109de929190610f8d565b509050505050565b60008060008060606000866040518082805190602001908083835b60208310610a245780518252602082019150602081019050602083039250610a01565b6001836020036101000a038019825116818451168082178552505050505050905001915050908152602001604051809103902060000160009054906101000a900460ff166000876040518082805190602001908083835b60208310610a9e5780518252602082019150602081019050602083039250610a7b565b6001836020036101000a038019825116818451168082178552505050505050905001915050908152602001604051809103902060000160019054906101000a900473ffffffffffffffffffffffffffffffffffffffff166000886040518082805190602001908083835b60208310610b2b5780518252602082019150602081019050602083039250610b08565b6001836020036101000a0380198251168184511680821785525050505050509050019150509081526020016040518091039020600101546000896040518082805190602001908083835b60208310610b985780518252602082019150602081019050602083039250610b75565b6001836020036101000a03801982511681845116808217855250505050505090500191505090815260200160405180910390206002015460016000808c6040518082805190602001908083835b60208310610c085780518252602082019150602081019050602083039250610be5565b6001836020036101000a038019825116818451168082178552505050505050905001915050908152602001604051809103902060000160019054906101000a900473ffffffffffffffffffffffffffffffffffffffff1673ffffffffffffffffffffffffffffffffffffffff1673ffffffffffffffffffffffffffffffffffffffff168152602001908152602001600020600001808054600181600116156101000203166002900480601f016020809104026020016040519081016040528092919081815260200182805460018160011615610100020316600290048015610d315780601f10610d0657610100808354040283529160200191610d31565b820191906000526020600020905b815481529060010190602001808311610d1457829003601f168201915b505050505090509450945094509450945091939590929450565b6000606082905060006080905080825114610d6b57600092505050610f35565b60008090505b81811015610f2d577f3000000000000000000000000000000000000000000000000000000000000000838281518110610da657fe5b602001015160f81c60f81b7effffffffffffffffffffffffffffffffffffffffffffffffffffffffffffff19161015610de55760009350505050610f35565b7f3900000000000000000000000000000000000000000000000000000000000000838281518110610e1257fe5b602001015160f81c60f81b7effffffffffffffffffffffffffffffffffffffffffffffffffffffffffffff1916118015610ea357507f6100000000000000000000000000000000000000000000000000000000000000838281518110610e7457fe5b602001015160f81c60f81b7effffffffffffffffffffffffffffffffffffffffffffffffffffffffffffff1916105b15610eb45760009350505050610f35565b7f6600000000000000000000000000000000000000000000000000000000000000838281518110610ee157fe5b602001015160f81c60f81b7effffffffffffffffffffffffffffffffffffffffffffffffffffffffffffff19161115610f205760009350505050610f35565b8080600101915050610d71565b506001925050505b919050565b6040518060800160405280600015158152602001600073ffffffffffffffffffffffffffffffffffffffff16815260200160008152602001600081525090565b6040518060200160405280606081525090565b828054600181600116156101000203166002900490600052602060002090601f016020900481019282601f10610fce57805160ff1916838001178555610ffc565b82800160010185558215610ffc579182015b82811115610ffb578251825591602001919060010190610fe0565b5b509050611009919061100d565b5090565b61102f91905b8082111561102b576000816000905550600101611013565b5090565b9056fea265627a7a7231582042c788770ea5dd02f0969a7b875f106dc439603fc16dce855363f9fad09ccbfc64736f6c63430005100032",
  "source": "pragma solidity ^0.5.0;\n\ncontract Poe {\n    struct Record {\n        bool status;\n        address adderPub;\n        uint256 mineTime;\n        uint256 blockNumber;\n    }\n    struct School {\n        string adderName;\n    }\n    mapping(string => Record) private docHashes;\n    mapping(address => School) private adder;\n\n    constructor() public {}\n\n    function isValidHash(string memory hash) private pure returns (bool) {\n        bytes memory b = bytes(hash);\n        uint256 hashLength = 128;\n        if (b.length != hashLength) return false;\n        for (uint256 i = 0; i < hashLength; i++) {\n            if (b[i] < \"0\") return false;\n            if (b[i] > \"9\" && b[i] < \"a\") return false;\n            if (b[i] > \"f\") return false;\n        }\n        return true;\n    }\n\n    function mapAdder(string memory schoolName) public {\n        School memory newAdder = School(schoolName);\n        adder[msg.sender] = newAdder;\n    }\n\n    function findCertificate(string memory hash)\n        public\n        view\n        returns (\n            bool,\n            address,\n            uint256,\n            uint256,\n            string memory\n        )\n    {\n        return (\n            docHashes[hash].status,\n            docHashes[hash].adderPub,\n            docHashes[hash].mineTime,\n            docHashes[hash].blockNumber,\n            adder[docHashes[hash].adderPub].adderName\n        );\n    }\n\n    function addCertificate(string memory hash) public {\n        require(isValidHash(hash));\n        require(docHashes[hash].blockNumber == 0);\n        Record memory newRecord = Record(true, msg.sender, now, block.number);\n        docHashes[hash] = newRecord;\n    }\n\n    function toggleStatus(string memory hash) public {\n        require(msg.sender == docHashes[hash].adderPub);\n        if (docHashes[hash].status == true) {\n            Record memory newRecord =\n                Record(false, msg.sender, now, block.number);\n            docHashes[hash] = newRecord;\n        } else {\n            Record memory newRecord =\n                Record(true, msg.sender, now, block.number);\n            docHashes[hash] = newRecord;\n        }\n    }\n}\n",
  "sourcePath": "/Users/krxw/Me/DigitalCertValidate/contracts/Poe.sol",
  "compiler": {
    "name": "solc",
    "version": "0.5.16+commit.9c3226ce.Emscripten.clang"
  },
  "schemaVersion": "3.3.0",
  "updatedAt": "2021-02-17T10:38:40.886Z",
  "networkType": "ethereum",
  "devdoc": {
    "methods": {}
  },
  "userdoc": {
    "methods": {}
  }
}