{
  "contractName": "Poe",
  "abi": [
    {
      "inputs": [],
      "payable": false,
      "stateMutability": "nonpayable",
      "type": "constructor"
    },
    {
      "anonymous": false,
      "inputs": [
        {
          "indexed": false,
          "internalType": "string",
          "name": "docDigest",
          "type": "string"
        },
        {
          "indexed": false,
          "internalType": "address",
          "name": "docAdder",
          "type": "address"
        }
      ],
      "name": "Added",
      "type": "event"
    },
    {
      "anonymous": false,
      "inputs": [
        {
          "indexed": false,
          "internalType": "string",
          "name": "name",
          "type": "string"
        },
        {
          "indexed": false,
          "internalType": "address",
          "name": "schoolAddr",
          "type": "address"
        }
      ],
      "name": "Mapped",
      "type": "event"
    },
    {
      "anonymous": false,
      "inputs": [
        {
          "indexed": false,
          "internalType": "string",
          "name": "docDigest",
          "type": "string"
        },
        {
          "indexed": false,
          "internalType": "bool",
          "name": "status",
          "type": "bool"
        }
      ],
      "name": "Toggled",
      "type": "event"
    },
    {
      "constant": false,
      "inputs": [
        {
          "internalType": "string",
          "name": "schoolName",
          "type": "string"
        }
      ],
      "name": "mapAdder",
      "outputs": [],
      "payable": false,
      "stateMutability": "nonpayable",
      "type": "function"
    },
    {
      "constant": true,
      "inputs": [
        {
          "internalType": "string",
          "name": "hash",
          "type": "string"
        }
      ],
      "name": "findDocHash",
      "outputs": [
        {
          "internalType": "bool",
          "name": "",
          "type": "bool"
        },
        {
          "internalType": "address",
          "name": "",
          "type": "address"
        },
        {
          "internalType": "uint256",
          "name": "",
          "type": "uint256"
        },
        {
          "internalType": "uint256",
          "name": "",
          "type": "uint256"
        },
        {
          "internalType": "string",
          "name": "",
          "type": "string"
        }
      ],
      "payable": false,
      "stateMutability": "view",
      "type": "function"
    },
    {
      "constant": false,
      "inputs": [
        {
          "internalType": "string",
          "name": "hash",
          "type": "string"
        }
      ],
      "name": "addDocHash",
      "outputs": [],
      "payable": false,
      "stateMutability": "nonpayable",
      "type": "function"
    },
    {
      "constant": false,
      "inputs": [
        {
          "internalType": "string",
          "name": "hash",
          "type": "string"
        }
      ],
      "name": "toggleStatus",
      "outputs": [],
      "payable": false,
      "stateMutability": "nonpayable",
      "type": "function"
    }
  ],
  "bytecode": "0x608060405234801561001057600080fd5b50611359806100206000396000f3fe608060405234801561001057600080fd5b506004361061004c5760003560e01c80634078dfcf14610051578063450a2968146101d15780638f47c3b61461028c578063943ef38a14610347575b600080fd5b61010a6004803603602081101561006757600080fd5b810190808035906020019064010000000081111561008457600080fd5b82018360208201111561009657600080fd5b803590602001918460018302840111640100000000831117156100b857600080fd5b91908080601f016020809104026020016040519081016040528093929190818152602001838380828437600081840152601f19601f820116905080830192505050505050509192919290505050610402565b60405180861515151581526020018573ffffffffffffffffffffffffffffffffffffffff1673ffffffffffffffffffffffffffffffffffffffff16815260200184815260200183815260200180602001828103825283818151815260200191508051906020019080838360005b83811015610192578082015181840152602081019050610177565b50505050905090810190601f1680156101bf5780820380516001836020036101000a031916815260200191505b50965050505050505060405180910390f35b61028a600480360360208110156101e757600080fd5b810190808035906020019064010000000081111561020457600080fd5b82018360208201111561021657600080fd5b8035906020019184600183028401116401000000008311171561023857600080fd5b91908080601f016020809104026020016040519081016040528093929190818152602001838380828437600081840152601f19601f820116905080830192505050505050509192919290505050610767565b005b610345600480360360208110156102a257600080fd5b81019080803590602001906401000000008111156102bf57600080fd5b8201836020820111156102d157600080fd5b803590602001918460018302840111640100000000831117156102f357600080fd5b91908080601f016020809104026020016040519081016040528093929190818152602001838380828437600081840152601f19601f820116905080830192505050505050509192919290505050610c66565b005b6104006004803603602081101561035d57600080fd5b810190808035906020019064010000000081111561037a57600080fd5b82018360208201111561038c57600080fd5b803590602001918460018302840111640100000000831117156103ae57600080fd5b91908080601f016020809104026020016040519081016040528093929190818152602001838380828437600081840152601f19601f820116905080830192505050505050509192919290505050610ef0565b005b60008060008060606000866040518082805190602001908083835b60208310610440578051825260208201915060208101905060208303925061041d565b6001836020036101000a038019825116818451168082178552505050505050905001915050908152602001604051809103902060000160009054906101000a900460ff166000876040518082805190602001908083835b602083106104ba5780518252602082019150602081019050602083039250610497565b6001836020036101000a038019825116818451168082178552505050505050905001915050908152602001604051809103902060000160019054906101000a900473ffffffffffffffffffffffffffffffffffffffff166000886040518082805190602001908083835b602083106105475780518252602082019150602081019050602083039250610524565b6001836020036101000a0380198251168184511680821785525050505050509050019150509081526020016040518091039020600101546000896040518082805190602001908083835b602083106105b45780518252602082019150602081019050602083039250610591565b6001836020036101000a03801982511681845116808217855250505050505090500191505090815260200160405180910390206002015460016000808c6040518082805190602001908083835b602083106106245780518252602082019150602081019050602083039250610601565b6001836020036101000a038019825116818451168082178552505050505050905001915050908152602001604051809103902060000160019054906101000a900473ffffffffffffffffffffffffffffffffffffffff1673ffffffffffffffffffffffffffffffffffffffff1673ffffffffffffffffffffffffffffffffffffffff168152602001908152602001600020600001808054600181600116156101000203166002900480601f01602080910402602001604051908101604052809291908181526020018280546001816001161561010002031660029004801561074d5780601f106107225761010080835404028352916020019161074d565b820191906000526020600020905b81548152906001019060200180831161073057829003601f168201915b505050505090509450945094509450945091939590929450565b6000816040518082805190602001908083835b6020831061079d578051825260208201915060208101905060208303925061077a565b6001836020036101000a038019825116818451168082178552505050505050905001915050908152602001604051809103902060000160019054906101000a900473ffffffffffffffffffffffffffffffffffffffff1673ffffffffffffffffffffffffffffffffffffffff163373ffffffffffffffffffffffffffffffffffffffff161461082b57600080fd5b600115156000826040518082805190602001908083835b602083106108655780518252602082019150602081019050602083039250610842565b6001836020036101000a038019825116818451168082178552505050505050905001915050908152602001604051809103902060000160009054906101000a900460ff1615151415610a8c576108b961122c565b60405180608001604052806000151581526020013373ffffffffffffffffffffffffffffffffffffffff168152602001428152602001438152509050806000836040518082805190602001908083835b6020831061092c5780518252602082019150602081019050602083039250610909565b6001836020036101000a038019825116818451168082178552505050505050905001915050908152602001604051809103902060008201518160000160006101000a81548160ff02191690831515021790555060208201518160000160016101000a81548173ffffffffffffffffffffffffffffffffffffffff021916908373ffffffffffffffffffffffffffffffffffffffff16021790555060408201518160010155606082015181600201559050507f96a8805bf242976cd238e1c7ed9947f4cfc12c1ce0b68d8afce8c6aae60dd280826000604051808060200183151515158152602001828103825284818151815260200191508051906020019080838360005b83811015610a4b578082015181840152602081019050610a30565b50505050905090810190601f168015610a785780820380516001836020036101000a031916815260200191505b50935050505060405180910390a150610c63565b610a9461122c565b60405180608001604052806001151581526020013373ffffffffffffffffffffffffffffffffffffffff168152602001428152602001438152509050806000836040518082805190602001908083835b60208310610b075780518252602082019150602081019050602083039250610ae4565b6001836020036101000a038019825116818451168082178552505050505050905001915050908152602001604051809103902060008201518160000160006101000a81548160ff02191690831515021790555060208201518160000160016101000a81548173ffffffffffffffffffffffffffffffffffffffff021916908373ffffffffffffffffffffffffffffffffffffffff16021790555060408201518160010155606082015181600201559050507f96a8805bf242976cd238e1c7ed9947f4cfc12c1ce0b68d8afce8c6aae60dd280826001604051808060200183151515158152602001828103825284818151815260200191508051906020019080838360005b83811015610c26578082015181840152602081019050610c0b565b50505050905090810190601f168015610c535780820380516001836020036101000a031916815260200191505b50935050505060405180910390a1505b50565b610c6f8161103d565b610c7857600080fd5b600080826040518082805190602001908083835b60208310610caf5780518252602082019150602081019050602083039250610c8c565b6001836020036101000a03801982511681845116808217855250505050505090500191505090815260200160405180910390206002015414610cf057600080fd5b610cf861122c565b60405180608001604052806001151581526020013373ffffffffffffffffffffffffffffffffffffffff168152602001428152602001438152509050806000836040518082805190602001908083835b60208310610d6b5780518252602082019150602081019050602083039250610d48565b6001836020036101000a038019825116818451168082178552505050505050905001915050908152602001604051809103902060008201518160000160006101000a81548160ff02191690831515021790555060208201518160000160016101000a81548173ffffffffffffffffffffffffffffffffffffffff021916908373ffffffffffffffffffffffffffffffffffffffff16021790555060408201518160010155606082015181600201559050507ffb989cb0d132b51483b9258c1befbe92caa5f5b046af3dfdcc617dcf425af493823360405180806020018373ffffffffffffffffffffffffffffffffffffffff1673ffffffffffffffffffffffffffffffffffffffff168152602001828103825284818151815260200191508051906020019080838360005b83811015610eb1578082015181840152602081019050610e96565b50505050905090810190601f168015610ede5780820380516001836020036101000a031916815260200191505b50935050505060405180910390a15050565b610ef861126c565b604051806020016040528083815250905080600160003373ffffffffffffffffffffffffffffffffffffffff1673ffffffffffffffffffffffffffffffffffffffff1681526020019081526020016000206000820151816000019080519060200190610f6592919061127f565b509050507fb85849511ef6c041570458aa63fbad10e2a54ad7c944d50504920952fdebf5a6823360405180806020018373ffffffffffffffffffffffffffffffffffffffff1673ffffffffffffffffffffffffffffffffffffffff168152602001828103825284818151815260200191508051906020019080838360005b83811015610ffe578082015181840152602081019050610fe3565b50505050905090810190601f16801561102b5780820380516001836020036101000a031916815260200191505b50935050505060405180910390a15050565b600060608290506000608090508082511461105d57600092505050611227565b60008090505b8181101561121f577f300000000000000000000000000000000000000000000000000000000000000083828151811061109857fe5b602001015160f81c60f81b7effffffffffffffffffffffffffffffffffffffffffffffffffffffffffffff191610156110d75760009350505050611227565b7f390000000000000000000000000000000000000000000000000000000000000083828151811061110457fe5b602001015160f81c60f81b7effffffffffffffffffffffffffffffffffffffffffffffffffffffffffffff191611801561119557507f610000000000000000000000000000000000000000000000000000000000000083828151811061116657fe5b602001015160f81c60f81b7effffffffffffffffffffffffffffffffffffffffffffffffffffffffffffff1916105b156111a65760009350505050611227565b7f66000000000000000000000000000000000000000000000000000000000000008382815181106111d357fe5b602001015160f81c60f81b7effffffffffffffffffffffffffffffffffffffffffffffffffffffffffffff191611156112125760009350505050611227565b8080600101915050611063565b506001925050505b919050565b6040518060800160405280600015158152602001600073ffffffffffffffffffffffffffffffffffffffff16815260200160008152602001600081525090565b6040518060200160405280606081525090565b828054600181600116156101000203166002900490600052602060002090601f016020900481019282601f106112c057805160ff19168380011785556112ee565b828001600101855582156112ee579182015b828111156112ed5782518255916020019190600101906112d2565b5b5090506112fb91906112ff565b5090565b61132191905b8082111561131d576000816000905550600101611305565b5090565b9056fea265627a7a723158205ad58d08ab028a001e96bb12bbab916201be621524a439f416acd38d168518c564736f6c63430005100032",
  "source": "pragma solidity ^0.5.0;\r\n\r\ncontract Poe {\r\n  struct Record{\r\n    bool status;\r\n    address adderPub;\r\n    uint mineTime;\r\n    uint blockNumber;\r\n  }\r\n  struct School{\r\n    string adderName;\r\n  }\r\n  mapping (string => Record) private docHashes;\r\n  mapping (address => School) private adder;\r\n\r\n  constructor() public {\r\n  }\r\n  event Mapped(\r\n       string name,\r\n       address schoolAddr\r\n    );\r\n  event Added(\r\n       string docDigest,\r\n       address docAdder\r\n    );\r\n  event Toggled(\r\n       string docDigest,\r\n       bool status\r\n    );\r\n  function isValidHash(string memory hash) private pure returns(bool){\r\n    bytes memory b = bytes(hash);\r\n    uint hashLength = 128;\r\n    if(b.length != hashLength) return false;\r\n    for (uint i=0; i<hashLength; i++) {\r\n        if (b[i] < \"0\") return false;\r\n        if (b[i] > \"9\" && b[i] <\"a\") return false;\r\n        if (b[i] > \"f\") return false;\r\n    }\r\n    return true;\r\n  }\r\n  function mapAdder(string memory schoolName) public{\r\n    School memory newAdder = School(schoolName);\r\n    adder[msg.sender] = newAdder;\r\n    emit Mapped(schoolName,msg.sender);\r\n  }\r\n\r\n  function findDocHash(string memory hash) public view returns(bool,address,uint,uint,string memory){\r\n    return (docHashes[hash].status ,docHashes[hash].adderPub ,docHashes[hash].mineTime , docHashes[hash].blockNumber,adder[docHashes[hash].adderPub].adderName);\r\n  }\r\n\r\n  function addDocHash (string memory hash) public{\r\n    require(isValidHash(hash));\r\n    require(docHashes[hash].blockNumber == 0);\r\n    Record memory newRecord = Record(true,msg.sender,now, block.number);\r\n    docHashes[hash] = newRecord;  \r\n    emit Added(hash, msg.sender);\r\n  }\r\n  \r\n  function toggleStatus(string memory hash) public{\r\n    require (msg.sender == docHashes[hash].adderPub);\r\n    if (docHashes[hash].status == true){\r\n      Record memory newRecord = Record(false,msg.sender,now, block.number);\r\n      docHashes[hash] = newRecord;\r\n      emit Toggled(hash,false);\r\n    }\r\n    else{\r\n      Record memory newRecord = Record(true,msg.sender,now, block.number);\r\n      docHashes[hash] = newRecord;\r\n      emit Toggled(hash,true);\r\n    }  \r\n    \r\n  }\r\n}",
  "sourcePath": "D:/work/Project/projFiles/DigitalCertValidate/contracts/Poe.sol",
  "compiler": {
    "name": "solc",
    "version": "0.5.16+commit.9c3226ce.Emscripten.clang"
  },
  "schemaVersion": "3.3.2",
  "updatedAt": "2021-03-01T16:51:13.587Z",
  "networkType": "ethereum",
  "devdoc": {
    "methods": {}
  },
  "userdoc": {
    "methods": {}
  }
}