{
  "contractName": "Poe",
  "abi": [
    {
      "inputs": [],
      "payable": false,
      "stateMutability": "nonpayable",
      "type": "constructor"
    },
    {
      "constant": true,
      "inputs": [
        {
          "internalType": "string",
          "name": "hash",
          "type": "string"
        }
      ],
      "name": "findDocHash",
      "outputs": [
        {
          "internalType": "bool",
          "name": "",
          "type": "bool"
        },
        {
          "internalType": "address",
          "name": "",
          "type": "address"
        },
        {
          "internalType": "uint256",
          "name": "",
          "type": "uint256"
        },
        {
          "internalType": "uint256",
          "name": "",
          "type": "uint256"
        }
      ],
      "payable": false,
      "stateMutability": "view",
      "type": "function"
    },
    {
      "constant": false,
      "inputs": [
        {
          "internalType": "string",
          "name": "hash",
          "type": "string"
        }
      ],
      "name": "addDocHash",
      "outputs": [],
      "payable": false,
      "stateMutability": "nonpayable",
      "type": "function"
    },
    {
      "constant": false,
      "inputs": [
        {
          "internalType": "string",
          "name": "hash",
          "type": "string"
        }
      ],
      "name": "toggleStatus",
      "outputs": [],
      "payable": false,
      "stateMutability": "nonpayable",
      "type": "function"
    }
  ],
  "bytecode": "0x608060405234801561001057600080fd5b50610c91806100206000396000f3fe608060405234801561001057600080fd5b50600436106100415760003560e01c80634078dfcf14610046578063450a29681461015a5780638f47c3b614610215575b600080fd5b6100ff6004803603602081101561005c57600080fd5b810190808035906020019064010000000081111561007957600080fd5b82018360208201111561008b57600080fd5b803590602001918460018302840111640100000000831117156100ad57600080fd5b91908080601f016020809104026020016040519081016040528093929190818152602001838380828437600081840152601f19601f8201169050808301925050505050505091929192905050506102d0565b60405180851515151581526020018473ffffffffffffffffffffffffffffffffffffffff1673ffffffffffffffffffffffffffffffffffffffff16815260200183815260200182815260200194505050505060405180910390f35b6102136004803603602081101561017057600080fd5b810190808035906020019064010000000081111561018d57600080fd5b82018360208201111561019f57600080fd5b803590602001918460018302840111640100000000831117156101c157600080fd5b91908080601f016020809104026020016040519081016040528093929190818152602001838380828437600081840152601f19601f8201169050808301925050505050505091929192905050506104c6565b005b6102ce6004803603602081101561022b57600080fd5b810190808035906020019064010000000081111561024857600080fd5b82018360208201111561025a57600080fd5b8035906020019184600183028401116401000000008311171561027c57600080fd5b91908080601f016020809104026020016040519081016040528093929190818152602001838380828437600081840152601f19601f820116905080830192505050505050509192919290505050610873565b005b6000806000806000856040518082805190602001908083835b6020831061030c57805182526020820191506020810190506020830392506102e9565b6001836020036101000a038019825116818451168082178552505050505050905001915050908152602001604051809103902060000160009054906101000a900460ff166000866040518082805190602001908083835b602083106103865780518252602082019150602081019050602083039250610363565b6001836020036101000a038019825116818451168082178552505050505050905001915050908152602001604051809103902060000160019054906101000a900473ffffffffffffffffffffffffffffffffffffffff166000876040518082805190602001908083835b6020831061041357805182526020820191506020810190506020830392506103f0565b6001836020036101000a0380198251168184511680821785525050505050509050019150509081526020016040518091039020600101546000886040518082805190602001908083835b60208310610480578051825260208201915060208101905060208303925061045d565b6001836020036101000a03801982511681845116808217855250505050505090500191505090815260200160405180910390206002015493509350935093509193509193565b6000816040518082805190602001908083835b602083106104fc57805182526020820191506020810190506020830392506104d9565b6001836020036101000a038019825116818451168082178552505050505050905001915050908152602001604051809103902060000160019054906101000a900473ffffffffffffffffffffffffffffffffffffffff1673ffffffffffffffffffffffffffffffffffffffff163373ffffffffffffffffffffffffffffffffffffffff161461058a57600080fd5b600115156000826040518082805190602001908083835b602083106105c457805182526020820191506020810190506020830392506105a1565b6001836020036101000a038019825116818451168082178552505050505050905001915050908152602001604051809103902060000160009054906101000a900460ff161515141561074257610618610c1c565b60405180608001604052806000151581526020013373ffffffffffffffffffffffffffffffffffffffff168152602001428152602001438152509050806000836040518082805190602001908083835b6020831061068b5780518252602082019150602081019050602083039250610668565b6001836020036101000a038019825116818451168082178552505050505050905001915050908152602001604051809103902060008201518160000160006101000a81548160ff02191690831515021790555060208201518160000160016101000a81548173ffffffffffffffffffffffffffffffffffffffff021916908373ffffffffffffffffffffffffffffffffffffffff160217905550604082015181600101556060820151816002015590505050610870565b61074a610c1c565b60405180608001604052806001151581526020013373ffffffffffffffffffffffffffffffffffffffff168152602001428152602001438152509050806000836040518082805190602001908083835b602083106107bd578051825260208201915060208101905060208303925061079a565b6001836020036101000a038019825116818451168082178552505050505050905001915050908152602001604051809103902060008201518160000160006101000a81548160ff02191690831515021790555060208201518160000160016101000a81548173ffffffffffffffffffffffffffffffffffffffff021916908373ffffffffffffffffffffffffffffffffffffffff1602179055506040820151816001015560608201518160020155905050505b50565b61087c81610a2d565b61088557600080fd5b600080826040518082805190602001908083835b602083106108bc5780518252602082019150602081019050602083039250610899565b6001836020036101000a038019825116818451168082178552505050505050905001915050908152602001604051809103902060020154146108fd57600080fd5b610905610c1c565b60405180608001604052806001151581526020013373ffffffffffffffffffffffffffffffffffffffff168152602001428152602001438152509050806000836040518082805190602001908083835b602083106109785780518252602082019150602081019050602083039250610955565b6001836020036101000a038019825116818451168082178552505050505050905001915050908152602001604051809103902060008201518160000160006101000a81548160ff02191690831515021790555060208201518160000160016101000a81548173ffffffffffffffffffffffffffffffffffffffff021916908373ffffffffffffffffffffffffffffffffffffffff16021790555060408201518160010155606082015181600201559050505050565b6000606082905060006080905080825114610a4d57600092505050610c17565b60008090505b81811015610c0f577f3000000000000000000000000000000000000000000000000000000000000000838281518110610a8857fe5b602001015160f81c60f81b7effffffffffffffffffffffffffffffffffffffffffffffffffffffffffffff19161015610ac75760009350505050610c17565b7f3900000000000000000000000000000000000000000000000000000000000000838281518110610af457fe5b602001015160f81c60f81b7effffffffffffffffffffffffffffffffffffffffffffffffffffffffffffff1916118015610b8557507f6100000000000000000000000000000000000000000000000000000000000000838281518110610b5657fe5b602001015160f81c60f81b7effffffffffffffffffffffffffffffffffffffffffffffffffffffffffffff1916105b15610b965760009350505050610c17565b7f6600000000000000000000000000000000000000000000000000000000000000838281518110610bc357fe5b602001015160f81c60f81b7effffffffffffffffffffffffffffffffffffffffffffffffffffffffffffff19161115610c025760009350505050610c17565b8080600101915050610a53565b506001925050505b919050565b6040518060800160405280600015158152602001600073ffffffffffffffffffffffffffffffffffffffff1681526020016000815260200160008152509056fea265627a7a7231582086f99fc56798e61572516737c9b83c3fbe5293da903f4f3b9bd0523c3cdbd06f64736f6c63430005100032",
  "source": "pragma solidity ^0.5.0;\r\ncontract Poe {\r\n  struct Record{\r\n    bool status;\r\n    address adderPub;\r\n    uint mineTime;\r\n    uint blockNumber;\r\n  }\r\n  mapping (string => Record) private docHashes;\r\n\r\n  constructor() public {\r\n  }\r\n  function isValidHash(string memory hash) private pure returns(bool){\r\n    bytes memory b = bytes(hash);\r\n    uint hashLength = 128;\r\n    if(b.length != hashLength) return false;\r\n    for (uint i=0; i<hashLength; i++) {\r\n        if (b[i] < \"0\") return false;\r\n        if (b[i] > \"9\" && b[i] <\"a\") return false;\r\n        if (b[i] > \"f\") return false;\r\n    }\r\n    return true;\r\n  }\r\n\r\n  function findDocHash(string memory hash) public view returns(bool,address,uint,uint){\r\n    return (docHashes[hash].status ,docHashes[hash].adderPub ,docHashes[hash].mineTime , docHashes[hash].blockNumber);\r\n  }\r\n\r\n  function addDocHash (string memory hash) public{\r\n    require(isValidHash(hash));\r\n    require(docHashes[hash].blockNumber == 0);\r\n    Record memory newRecord = Record(true,msg.sender,now, block.number);\r\n    docHashes[hash] = newRecord;  \r\n  }\r\n  \r\n  function toggleStatus(string memory  hash) public{\r\n    require (msg.sender == docHashes[hash].adderPub);\r\n    if (docHashes[hash].status == true){\r\n      Record memory newRecord = Record(false,msg.sender,now, block.number);\r\n      docHashes[hash] = newRecord;\r\n    }\r\n    else{\r\n      Record memory newRecord = Record(true,msg.sender,now, block.number);\r\n      docHashes[hash] = newRecord;\r\n    }  \r\n  }\r\n}",
  "sourcePath": "D:/work/Project/projFiles/DigitalCertValidate/contracts/Poe.sol",
  "compiler": {
    "name": "solc",
    "version": "0.5.16+commit.9c3226ce.Emscripten.clang"
  },
  "schemaVersion": "3.3.2",
  "updatedAt": "2021-02-14T09:35:17.228Z",
  "networkType": "ethereum",
  "devdoc": {
    "methods": {}
  },
  "userdoc": {
    "methods": {}
  }
}